{"abi":[{"type":"constructor","inputs":[{"name":"name","type":"string","internalType":"string"},{"name":"symbol","type":"string","internalType":"string"}],"stateMutability":"nonpayable"},{"type":"function","name":"BRIDGE_ROLE","inputs":[],"outputs":[{"name":"","type":"bytes32","internalType":"bytes32"}],"stateMutability":"view"},{"type":"function","name":"DEFAULT_ADMIN_ROLE","inputs":[],"outputs":[{"name":"","type":"bytes32","internalType":"bytes32"}],"stateMutability":"view"},{"type":"function","name":"allowance","inputs":[{"name":"owner","type":"address","internalType":"address"},{"name":"spender","type":"address","internalType":"address"}],"outputs":[{"name":"","type":"uint256","internalType":"uint256"}],"stateMutability":"view"},{"type":"function","name":"approve","inputs":[{"name":"spender","type":"address","internalType":"address"},{"name":"value","type":"uint256","internalType":"uint256"}],"outputs":[{"name":"","type":"bool","internalType":"bool"}],"stateMutability":"nonpayable"},{"type":"function","name":"balanceOf","inputs":[{"name":"account","type":"address","internalType":"address"}],"outputs":[{"name":"","type":"uint256","internalType":"uint256"}],"stateMutability":"view"},{"type":"function","name":"burn","inputs":[{"name":"value","type":"uint256","internalType":"uint256"}],"outputs":[],"stateMutability":"nonpayable"},{"type":"function","name":"burnFrom","inputs":[{"name":"account","type":"address","internalType":"address"},{"name":"value","type":"uint256","internalType":"uint256"}],"outputs":[],"stateMutability":"nonpayable"},{"type":"function","name":"burnFromBridge","inputs":[{"name":"from","type":"address","internalType":"address"},{"name":"amount","type":"uint256","internalType":"uint256"}],"outputs":[],"stateMutability":"nonpayable"},{"type":"function","name":"decimals","inputs":[],"outputs":[{"name":"","type":"uint8","internalType":"uint8"}],"stateMutability":"view"},{"type":"function","name":"getBalance","inputs":[{"name":"account","type":"address","internalType":"address"}],"outputs":[{"name":"","type":"uint256","internalType":"uint256"}],"stateMutability":"view"},{"type":"function","name":"getRoleAdmin","inputs":[{"name":"role","type":"bytes32","internalType":"bytes32"}],"outputs":[{"name":"","type":"bytes32","internalType":"bytes32"}],"stateMutability":"view"},{"type":"function","name":"grantRole","inputs":[{"name":"role","type":"bytes32","internalType":"bytes32"},{"name":"account","type":"address","internalType":"address"}],"outputs":[],"stateMutability":"nonpayable"},{"type":"function","name":"hasRole","inputs":[{"name":"role","type":"bytes32","internalType":"bytes32"},{"name":"account","type":"address","internalType":"address"}],"outputs":[{"name":"","type":"bool","internalType":"bool"}],"stateMutability":"view"},{"type":"function","name":"mint","inputs":[{"name":"to","type":"address","internalType":"address"},{"name":"amount","type":"uint256","internalType":"uint256"}],"outputs":[],"stateMutability":"nonpayable"},{"type":"function","name":"name","inputs":[],"outputs":[{"name":"","type":"string","internalType":"string"}],"stateMutability":"view"},{"type":"function","name":"renounceRole","inputs":[{"name":"role","type":"bytes32","internalType":"bytes32"},{"name":"callerConfirmation","type":"address","internalType":"address"}],"outputs":[],"stateMutability":"nonpayable"},{"type":"function","name":"revokeRole","inputs":[{"name":"role","type":"bytes32","internalType":"bytes32"},{"name":"account","type":"address","internalType":"address"}],"outputs":[],"stateMutability":"nonpayable"},{"type":"function","name":"supportsInterface","inputs":[{"name":"interfaceId","type":"bytes4","internalType":"bytes4"}],"outputs":[{"name":"","type":"bool","internalType":"bool"}],"stateMutability":"view"},{"type":"function","name":"symbol","inputs":[],"outputs":[{"name":"","type":"string","internalType":"string"}],"stateMutability":"view"},{"type":"function","name":"totalSupply","inputs":[],"outputs":[{"name":"","type":"uint256","internalType":"uint256"}],"stateMutability":"view"},{"type":"function","name":"transfer","inputs":[{"name":"to","type":"address","internalType":"address"},{"name":"value","type":"uint256","internalType":"uint256"}],"outputs":[{"name":"","type":"bool","internalType":"bool"}],"stateMutability":"nonpayable"},{"type":"function","name":"transferFrom","inputs":[{"name":"from","type":"address","internalType":"address"},{"name":"to","type":"address","internalType":"address"},{"name":"value","type":"uint256","internalType":"uint256"}],"outputs":[{"name":"","type":"bool","internalType":"bool"}],"stateMutability":"nonpayable"},{"type":"event","name":"Approval","inputs":[{"name":"owner","type":"address","indexed":true,"internalType":"address"},{"name":"spender","type":"address","indexed":true,"internalType":"address"},{"name":"value","type":"uint256","indexed":false,"internalType":"uint256"}],"anonymous":false},{"type":"event","name":"RoleAdminChanged","inputs":[{"name":"role","type":"bytes32","indexed":true,"internalType":"bytes32"},{"name":"previousAdminRole","type":"bytes32","indexed":true,"internalType":"bytes32"},{"name":"newAdminRole","type":"bytes32","indexed":true,"internalType":"bytes32"}],"anonymous":false},{"type":"event","name":"RoleGranted","inputs":[{"name":"role","type":"bytes32","indexed":true,"internalType":"bytes32"},{"name":"account","type":"address","indexed":true,"internalType":"address"},{"name":"sender","type":"address","indexed":true,"internalType":"address"}],"anonymous":false},{"type":"event","name":"RoleRevoked","inputs":[{"name":"role","type":"bytes32","indexed":true,"internalType":"bytes32"},{"name":"account","type":"address","indexed":true,"internalType":"address"},{"name":"sender","type":"address","indexed":true,"internalType":"address"}],"anonymous":false},{"type":"event","name":"Transfer","inputs":[{"name":"from","type":"address","indexed":true,"internalType":"address"},{"name":"to","type":"address","indexed":true,"internalType":"address"},{"name":"value","type":"uint256","indexed":false,"internalType":"uint256"}],"anonymous":false},{"type":"error","name":"AccessControlBadConfirmation","inputs":[]},{"type":"error","name":"AccessControlUnauthorizedAccount","inputs":[{"name":"account","type":"address","internalType":"address"},{"name":"neededRole","type":"bytes32","internalType":"bytes32"}]},{"type":"error","name":"ERC20InsufficientAllowance","inputs":[{"name":"spender","type":"address","internalType":"address"},{"name":"allowance","type":"uint256","internalType":"uint256"},{"name":"needed","type":"uint256","internalType":"uint256"}]},{"type":"error","name":"ERC20InsufficientBalance","inputs":[{"name":"sender","type":"address","internalType":"address"},{"name":"balance","type":"uint256","internalType":"uint256"},{"name":"needed","type":"uint256","internalType":"uint256"}]},{"type":"error","name":"ERC20InvalidApprover","inputs":[{"name":"approver","type":"address","internalType":"address"}]},{"type":"error","name":"ERC20InvalidReceiver","inputs":[{"name":"receiver","type":"address","internalType":"address"}]},{"type":"error","name":"ERC20InvalidSender","inputs":[{"name":"sender","type":"address","internalType":"address"}]},{"type":"error","name":"ERC20InvalidSpender","inputs":[{"name":"spender","type":"address","internalType":"address"}]}],"bytecode":{"object":"0x608060405234801561000f575f5ffd5b50604051612458380380612458833981810160405281019061003191906105fa565b818181600390816100429190610880565b5080600490816100529190610880565b5050506100675f5f1b336100a660201b60201c565b5061009f3361007a61019c60201b60201c565b600a6100869190610ab7565b620186a06100949190610b01565b6101a460201b60201c565b5050610c2a565b5f6100b7838361022960201b60201c565b61019257600160055f8581526020019081526020015f205f015f8473ffffffffffffffffffffffffffffffffffffffff1673ffffffffffffffffffffffffffffffffffffffff1681526020019081526020015f205f6101000a81548160ff02191690831515021790555061012f61028d60201b60201c565b73ffffffffffffffffffffffffffffffffffffffff168273ffffffffffffffffffffffffffffffffffffffff16847f2f8788117e7eff1d82e926ec794901d17c78024a50270940304540a733656f0d60405160405180910390a460019050610196565b5f90505b92915050565b5f6012905090565b5f73ffffffffffffffffffffffffffffffffffffffff168273ffffffffffffffffffffffffffffffffffffffff1603610214575f6040517fec442f0500000000000000000000000000000000000000000000000000000000815260040161020b9190610b81565b60405180910390fd5b6102255f838361029460201b60201c565b5050565b5f60055f8481526020019081526020015f205f015f8373ffffffffffffffffffffffffffffffffffffffff1673ffffffffffffffffffffffffffffffffffffffff1681526020019081526020015f205f9054906101000a900460ff16905092915050565b5f33905090565b5f73ffffffffffffffffffffffffffffffffffffffff168373ffffffffffffffffffffffffffffffffffffffff16036102e4578060025f8282546102d89190610b9a565b925050819055506103b2565b5f5f5f8573ffffffffffffffffffffffffffffffffffffffff1673ffffffffffffffffffffffffffffffffffffffff1681526020019081526020015f205490508181101561036d578381836040517fe450d38c00000000000000000000000000000000000000000000000000000000815260040161036493929190610bdc565b60405180910390fd5b8181035f5f8673ffffffffffffffffffffffffffffffffffffffff1673ffffffffffffffffffffffffffffffffffffffff1681526020019081526020015f2081905550505b5f73ffffffffffffffffffffffffffffffffffffffff168273ffffffffffffffffffffffffffffffffffffffff16036103f9578060025f8282540392505081905550610443565b805f5f8473ffffffffffffffffffffffffffffffffffffffff1673ffffffffffffffffffffffffffffffffffffffff1681526020019081526020015f205f82825401925050819055505b8173ffffffffffffffffffffffffffffffffffffffff168373ffffffffffffffffffffffffffffffffffffffff167fddf252ad1be2c89b69c2b068fc378daa952ba7f163c4a11628f55a4df523b3ef836040516104a09190610c11565b60405180910390a3505050565b5f604051905090565b5f5ffd5b5f5ffd5b5f5ffd5b5f5ffd5b5f601f19601f8301169050919050565b7f4e487b71000000000000000000000000000000000000000000000000000000005f52604160045260245ffd5b61050c826104c6565b810181811067ffffffffffffffff8211171561052b5761052a6104d6565b5b80604052505050565b5f61053d6104ad565b90506105498282610503565b919050565b5f67ffffffffffffffff821115610568576105676104d6565b5b610571826104c6565b9050602081019050919050565b8281835e5f83830152505050565b5f61059e6105998461054e565b610534565b9050828152602081018484840111156105ba576105b96104c2565b5b6105c584828561057e565b509392505050565b5f82601f8301126105e1576105e06104be565b5b81516105f184826020860161058c565b91505092915050565b5f5f604083850312156106105761060f6104b6565b5b5f83015167ffffffffffffffff81111561062d5761062c6104ba565b5b610639858286016105cd565b925050602083015167ffffffffffffffff81111561065a576106596104ba565b5b610666858286016105cd565b9150509250929050565b5f81519050919050565b7f4e487b71000000000000000000000000000000000000000000000000000000005f52602260045260245ffd5b5f60028204905060018216806106be57607f821691505b6020821081036106d1576106d061067a565b5b50919050565b5f819050815f5260205f209050919050565b5f6020601f8301049050919050565b5f82821b905092915050565b5f600883026107337fffffffffffffffffffffffffffffffffffffffffffffffffffffffffffffffff826106f8565b61073d86836106f8565b95508019841693508086168417925050509392505050565b5f819050919050565b5f819050919050565b5f61078161077c61077784610755565b61075e565b610755565b9050919050565b5f819050919050565b61079a83610767565b6107ae6107a682610788565b848454610704565b825550505050565b5f5f905090565b6107c56107b6565b6107d0818484610791565b505050565b5b818110156107f3576107e85f826107bd565b6001810190506107d6565b5050565b601f82111561083857610809816106d7565b610812846106e9565b81016020851015610821578190505b61083561082d856106e9565b8301826107d5565b50505b505050565b5f82821c905092915050565b5f6108585f198460080261083d565b1980831691505092915050565b5f6108708383610849565b9150826002028217905092915050565b61088982610670565b67ffffffffffffffff8111156108a2576108a16104d6565b5b6108ac82546106a7565b6108b78282856107f7565b5f60209050601f8311600181146108e8575f84156108d6578287015190505b6108e08582610865565b865550610947565b601f1984166108f6866106d7565b5f5b8281101561091d578489015182556001820191506020850194506020810190506108f8565b8683101561093a5784890151610936601f891682610849565b8355505b6001600288020188555050505b505050505050565b7f4e487b71000000000000000000000000000000000000000000000000000000005f52601160045260245ffd5b5f8160011c9050919050565b5f5f8291508390505b60018511156109d1578086048111156109ad576109ac61094f565b5b60018516156109bc5780820291505b80810290506109ca8561097c565b9450610991565b94509492505050565b5f826109e95760019050610aa4565b816109f6575f9050610aa4565b8160018114610a0c5760028114610a1657610a45565b6001915050610aa4565b60ff841115610a2857610a2761094f565b5b8360020a915084821115610a3f57610a3e61094f565b5b50610aa4565b5060208310610133831016604e8410600b8410161715610a7a5782820a905083811115610a7557610a7461094f565b5b610aa4565b610a878484846001610988565b92509050818404811115610a9e57610a9d61094f565b5b81810290505b9392505050565b5f60ff82169050919050565b5f610ac182610755565b9150610acc83610aab565b9250610af97fffffffffffffffffffffffffffffffffffffffffffffffffffffffffffffffff84846109da565b905092915050565b5f610b0b82610755565b9150610b1683610755565b9250828202610b2481610755565b91508282048414831517610b3b57610b3a61094f565b5b5092915050565b5f73ffffffffffffffffffffffffffffffffffffffff82169050919050565b5f610b6b82610b42565b9050919050565b610b7b81610b61565b82525050565b5f602082019050610b945f830184610b72565b92915050565b5f610ba482610755565b9150610baf83610755565b9250828201905080821115610bc757610bc661094f565b5b92915050565b610bd681610755565b82525050565b5f606082019050610bef5f830186610b72565b610bfc6020830185610bcd565b610c096040830184610bcd565b949350505050565b5f602082019050610c245f830184610bcd565b92915050565b61182180610c375f395ff3fe608060405234801561000f575f5ffd5b5060043610610140575f3560e01c8063568b4afe116100b6578063a217fddf1161007a578063a217fddf14610384578063a9059cbb146103a2578063b5bfddea146103d2578063d547741f146103f0578063dd62ed3e1461040c578063f8b2cb4f1461043c57610140565b8063568b4afe146102ce57806370a08231146102ea57806379cc67901461031a57806391d148541461033657806395d89b411461036657610140565b8063248a9ca311610108578063248a9ca3146102105780632f2ff15d14610240578063313ce5671461025c57806336568abe1461027a57806340c10f191461029657806342966c68146102b257610140565b806301ffc9a71461014457806306fdde0314610174578063095ea7b31461019257806318160ddd146101c257806323b872dd146101e0575b5f5ffd5b61015e600480360381019061015991906112ed565b61046c565b60405161016b9190611332565b60405180910390f35b61017c6104e5565b60405161018991906113bb565b60405180910390f35b6101ac60048036038101906101a79190611468565b610575565b6040516101b99190611332565b60405180910390f35b6101ca610597565b6040516101d791906114b5565b60405180910390f35b6101fa60048036038101906101f591906114ce565b6105a0565b6040516102079190611332565b60405180910390f35b61022a60048036038101906102259190611551565b6105ce565b604051610237919061158b565b60405180910390f35b61025a600480360381019061025591906115a4565b6105eb565b005b61026461060d565b60405161027191906115fd565b60405180910390f35b610294600480360381019061028f91906115a4565b610615565b005b6102b060048036038101906102ab9190611468565b610690565b005b6102cc60048036038101906102c79190611616565b6106c9565b005b6102e860048036038101906102e39190611468565b6106dd565b005b61030460048036038101906102ff9190611641565b610716565b60405161031191906114b5565b60405180910390f35b610334600480360381019061032f9190611468565b61075b565b005b610350600480360381019061034b91906115a4565b61077b565b60405161035d9190611332565b60405180910390f35b61036e6107df565b60405161037b91906113bb565b60405180910390f35b61038c61086f565b604051610399919061158b565b60405180910390f35b6103bc60048036038101906103b79190611468565b610875565b6040516103c99190611332565b60405180910390f35b6103da610897565b6040516103e7919061158b565b60405180910390f35b61040a600480360381019061040591906115a4565b6108bb565b005b6104266004803603810190610421919061166c565b6108dd565b60405161043391906114b5565b60405180910390f35b61045660048036038101906104519190611641565b61095f565b60405161046391906114b5565b60405180910390f35b5f7f7965db0b000000000000000000000000000000000000000000000000000000007bffffffffffffffffffffffffffffffffffffffffffffffffffffffff1916827bffffffffffffffffffffffffffffffffffffffffffffffffffffffff191614806104de57506104dd82610970565b5b9050919050565b6060600380546104f4906116d7565b80601f0160208091040260200160405190810160405280929190818152602001828054610520906116d7565b801561056b5780601f106105425761010080835404028352916020019161056b565b820191905f5260205f20905b81548152906001019060200180831161054e57829003601f168201915b5050505050905090565b5f5f61057f6109d9565b905061058c8185856109e0565b600191505092915050565b5f600254905090565b5f5f6105aa6109d9565b90506105b78582856109f2565b6105c2858585610a85565b60019150509392505050565b5f60055f8381526020019081526020015f20600101549050919050565b6105f4826105ce565b6105fd81610b75565b6106078383610b89565b50505050565b5f6012905090565b61061d6109d9565b73ffffffffffffffffffffffffffffffffffffffff168173ffffffffffffffffffffffffffffffffffffffff1614610681576040517f6697b23200000000000000000000000000000000000000000000000000000000815260040160405180910390fd5b61068b8282610c73565b505050565b7f52ba824bfabc2bcfcdf7f0edbb486ebb05e1836c90e78047efeb949990f72e5f6106ba81610b75565b6106c48383610d5d565b505050565b6106da6106d46109d9565b82610ddc565b50565b7f52ba824bfabc2bcfcdf7f0edbb486ebb05e1836c90e78047efeb949990f72e5f61070781610b75565b6107118383610ddc565b505050565b5f5f5f8373ffffffffffffffffffffffffffffffffffffffff1673ffffffffffffffffffffffffffffffffffffffff1681526020019081526020015f20549050919050565b61076d826107676109d9565b836109f2565b6107778282610ddc565b5050565b5f60055f8481526020019081526020015f205f015f8373ffffffffffffffffffffffffffffffffffffffff1673ffffffffffffffffffffffffffffffffffffffff1681526020019081526020015f205f9054906101000a900460ff16905092915050565b6060600480546107ee906116d7565b80601f016020809104026020016040519081016040528092919081815260200182805461081a906116d7565b80156108655780601f1061083c57610100808354040283529160200191610865565b820191905f5260205f20905b81548152906001019060200180831161084857829003601f168201915b5050505050905090565b5f5f1b81565b5f5f61087f6109d9565b905061088c818585610a85565b600191505092915050565b7f52ba824bfabc2bcfcdf7f0edbb486ebb05e1836c90e78047efeb949990f72e5f81565b6108c4826105ce565b6108cd81610b75565b6108d78383610c73565b50505050565b5f60015f8473ffffffffffffffffffffffffffffffffffffffff1673ffffffffffffffffffffffffffffffffffffffff1681526020019081526020015f205f8373ffffffffffffffffffffffffffffffffffffffff1673ffffffffffffffffffffffffffffffffffffffff1681526020019081526020015f2054905092915050565b5f61096982610716565b9050919050565b5f7f01ffc9a7000000000000000000000000000000000000000000000000000000007bffffffffffffffffffffffffffffffffffffffffffffffffffffffff1916827bffffffffffffffffffffffffffffffffffffffffffffffffffffffff1916149050919050565b5f33905090565b6109ed8383836001610e5b565b505050565b5f6109fd84846108dd565b90507fffffffffffffffffffffffffffffffffffffffffffffffffffffffffffffffff811015610a7f5781811015610a70578281836040517ffb8f41b2000000000000000000000000000000000000000000000000000000008152600401610a6793929190611716565b60405180910390fd5b610a7e84848484035f610e5b565b5b50505050565b5f73ffffffffffffffffffffffffffffffffffffffff168373ffffffffffffffffffffffffffffffffffffffff1603610af5575f6040517f96c6fd1e000000000000000000000000000000000000000000000000000000008152600401610aec919061174b565b60405180910390fd5b5f73ffffffffffffffffffffffffffffffffffffffff168273ffffffffffffffffffffffffffffffffffffffff1603610b65575f6040517fec442f05000000000000000000000000000000000000000000000000000000008152600401610b5c919061174b565b60405180910390fd5b610b7083838361102a565b505050565b610b8681610b816109d9565b611243565b50565b5f610b94838361077b565b610c6957600160055f8581526020019081526020015f205f015f8473ffffffffffffffffffffffffffffffffffffffff1673ffffffffffffffffffffffffffffffffffffffff1681526020019081526020015f205f6101000a81548160ff021916908315150217905550610c066109d9565b73ffffffffffffffffffffffffffffffffffffffff168273ffffffffffffffffffffffffffffffffffffffff16847f2f8788117e7eff1d82e926ec794901d17c78024a50270940304540a733656f0d60405160405180910390a460019050610c6d565b5f90505b92915050565b5f610c7e838361077b565b15610d53575f60055f8581526020019081526020015f205f015f8473ffffffffffffffffffffffffffffffffffffffff1673ffffffffffffffffffffffffffffffffffffffff1681526020019081526020015f205f6101000a81548160ff021916908315150217905550610cf06109d9565b73ffffffffffffffffffffffffffffffffffffffff168273ffffffffffffffffffffffffffffffffffffffff16847ff6391f5c32d9c69d2a47ea670b442974b53935d1edc7fd64eb21e047a839171b60405160405180910390a460019050610d57565b5f90505b92915050565b5f73ffffffffffffffffffffffffffffffffffffffff168273ffffffffffffffffffffffffffffffffffffffff1603610dcd575f6040517fec442f05000000000000000000000000000000000000000000000000000000008152600401610dc4919061174b565b60405180910390fd5b610dd85f838361102a565b5050565b5f73ffffffffffffffffffffffffffffffffffffffff168273ffffffffffffffffffffffffffffffffffffffff1603610e4c575f6040517f96c6fd1e000000000000000000000000000000000000000000000000000000008152600401610e43919061174b565b60405180910390fd5b610e57825f8361102a565b5050565b5f73ffffffffffffffffffffffffffffffffffffffff168473ffffffffffffffffffffffffffffffffffffffff1603610ecb575f6040517fe602df05000000000000000000000000000000000000000000000000000000008152600401610ec2919061174b565b60405180910390fd5b5f73ffffffffffffffffffffffffffffffffffffffff168373ffffffffffffffffffffffffffffffffffffffff1603610f3b575f6040517f94280d62000000000000000000000000000000000000000000000000000000008152600401610f32919061174b565b60405180910390fd5b8160015f8673ffffffffffffffffffffffffffffffffffffffff1673ffffffffffffffffffffffffffffffffffffffff1681526020019081526020015f205f8573ffffffffffffffffffffffffffffffffffffffff1673ffffffffffffffffffffffffffffffffffffffff1681526020019081526020015f20819055508015611024578273ffffffffffffffffffffffffffffffffffffffff168473ffffffffffffffffffffffffffffffffffffffff167f8c5be1e5ebec7d5bd14f71427d1e84f3dd0314c0f7b2291e5b200ac8c7c3b9258460405161101b91906114b5565b60405180910390a35b50505050565b5f73ffffffffffffffffffffffffffffffffffffffff168373ffffffffffffffffffffffffffffffffffffffff160361107a578060025f82825461106e9190611791565b92505081905550611148565b5f5f5f8573ffffffffffffffffffffffffffffffffffffffff1673ffffffffffffffffffffffffffffffffffffffff1681526020019081526020015f2054905081811015611103578381836040517fe450d38c0000000000000000000000000000000000000000000000000000000081526004016110fa93929190611716565b60405180910390fd5b8181035f5f8673ffffffffffffffffffffffffffffffffffffffff1673ffffffffffffffffffffffffffffffffffffffff1681526020019081526020015f2081905550505b5f73ffffffffffffffffffffffffffffffffffffffff168273ffffffffffffffffffffffffffffffffffffffff160361118f578060025f82825403925050819055506111d9565b805f5f8473ffffffffffffffffffffffffffffffffffffffff1673ffffffffffffffffffffffffffffffffffffffff1681526020019081526020015f205f82825401925050819055505b8173ffffffffffffffffffffffffffffffffffffffff168373ffffffffffffffffffffffffffffffffffffffff167fddf252ad1be2c89b69c2b068fc378daa952ba7f163c4a11628f55a4df523b3ef8360405161123691906114b5565b60405180910390a3505050565b61124d828261077b565b6112905780826040517fe2517d3f0000000000000000000000000000000000000000000000000000000081526004016112879291906117c4565b60405180910390fd5b5050565b5f5ffd5b5f7fffffffff0000000000000000000000000000000000000000000000000000000082169050919050565b6112cc81611298565b81146112d6575f5ffd5b50565b5f813590506112e7816112c3565b92915050565b5f6020828403121561130257611301611294565b5b5f61130f848285016112d9565b91505092915050565b5f8115159050919050565b61132c81611318565b82525050565b5f6020820190506113455f830184611323565b92915050565b5f81519050919050565b5f82825260208201905092915050565b8281835e5f83830152505050565b5f601f19601f8301169050919050565b5f61138d8261134b565b6113978185611355565b93506113a7818560208601611365565b6113b081611373565b840191505092915050565b5f6020820190508181035f8301526113d38184611383565b905092915050565b5f73ffffffffffffffffffffffffffffffffffffffff82169050919050565b5f611404826113db565b9050919050565b611414816113fa565b811461141e575f5ffd5b50565b5f8135905061142f8161140b565b92915050565b5f819050919050565b61144781611435565b8114611451575f5ffd5b50565b5f813590506114628161143e565b92915050565b5f5f6040838503121561147e5761147d611294565b5b5f61148b85828601611421565b925050602061149c85828601611454565b9150509250929050565b6114af81611435565b82525050565b5f6020820190506114c85f8301846114a6565b92915050565b5f5f5f606084860312156114e5576114e4611294565b5b5f6114f286828701611421565b935050602061150386828701611421565b925050604061151486828701611454565b9150509250925092565b5f819050919050565b6115308161151e565b811461153a575f5ffd5b50565b5f8135905061154b81611527565b92915050565b5f6020828403121561156657611565611294565b5b5f6115738482850161153d565b91505092915050565b6115858161151e565b82525050565b5f60208201905061159e5f83018461157c565b92915050565b5f5f604083850312156115ba576115b9611294565b5b5f6115c78582860161153d565b92505060206115d885828601611421565b9150509250929050565b5f60ff82169050919050565b6115f7816115e2565b82525050565b5f6020820190506116105f8301846115ee565b92915050565b5f6020828403121561162b5761162a611294565b5b5f61163884828501611454565b91505092915050565b5f6020828403121561165657611655611294565b5b5f61166384828501611421565b91505092915050565b5f5f6040838503121561168257611681611294565b5b5f61168f85828601611421565b92505060206116a085828601611421565b9150509250929050565b7f4e487b71000000000000000000000000000000000000000000000000000000005f52602260045260245ffd5b5f60028204905060018216806116ee57607f821691505b602082108103611701576117006116aa565b5b50919050565b611710816113fa565b82525050565b5f6060820190506117295f830186611707565b61173660208301856114a6565b61174360408301846114a6565b949350505050565b5f60208201905061175e5f830184611707565b92915050565b7f4e487b71000000000000000000000000000000000000000000000000000000005f52601160045260245ffd5b5f61179b82611435565b91506117a683611435565b92508282019050808211156117be576117bd611764565b5b92915050565b5f6040820190506117d75f830185611707565b6117e4602083018461157c565b939250505056fea2646970667358221220d3d7feb0ac502a4aac707fa08228e148a1fa44424766b4d37224d79fb6963df564736f6c634300081c0033","linkReferences":{}},"methodIdentifiers":{"BRIDGE_ROLE()":"b5bfddea","DEFAULT_ADMIN_ROLE()":"a217fddf","allowance(address,address)":"dd62ed3e","approve(address,uint256)":"095ea7b3","balanceOf(address)":"70a08231","burn(uint256)":"42966c68","burnFrom(address,uint256)":"79cc6790","burnFromBridge(address,uint256)":"568b4afe","decimals()":"313ce567","getBalance(address)":"f8b2cb4f","getRoleAdmin(bytes32)":"248a9ca3","grantRole(bytes32,address)":"2f2ff15d","hasRole(bytes32,address)":"91d14854","mint(address,uint256)":"40c10f19","name()":"06fdde03","renounceRole(bytes32,address)":"36568abe","revokeRole(bytes32,address)":"d547741f","supportsInterface(bytes4)":"01ffc9a7","symbol()":"95d89b41","totalSupply()":"18160ddd","transfer(address,uint256)":"a9059cbb","transferFrom(address,address,uint256)":"23b872dd"},"id":38}