{
  "abi": [
    {
      "type": "constructor",
      "inputs": [
        {
          "name": "_token",
          "type": "address",
          "internalType": "address"
        },
        {
          "name": "_conversionRate",
          "type": "uint256",
          "internalType": "uint256"
        }
      ],
      "stateMutability": "nonpayable"
    },
    {
      "type": "function",
      "name": "burnTokens",
      "inputs": [
        {
          "name": "amount",
          "type": "uint256",
          "internalType": "uint256"
        },
        {
          "name": "targetChain",
          "type": "string",
          "internalType": "string"
        }
      ],
      "outputs": [],
      "stateMutability": "nonpayable"
    },
    {
      "type": "function",
      "name": "conversionRate",
      "inputs": [],
      "outputs": [
        {
          "name": "",
          "type": "uint256",
          "internalType": "uint256"
        }
      ],
      "stateMutability": "view"
    },
    {
      "type": "function",
      "name": "mintTokens",
      "inputs": [
        {
          "name": "to",
          "type": "address",
          "internalType": "address"
        },
        {
          "name": "amount",
          "type": "uint256",
          "internalType": "uint256"
        },
        {
          "name": "sourceTx",
          "type": "bytes32",
          "internalType": "bytes32"
        }
      ],
      "outputs": [],
      "stateMutability": "nonpayable"
    },
    {
      "type": "function",
      "name": "processedTx",
      "inputs": [
        {
          "name": "",
          "type": "bytes32",
          "internalType": "bytes32"
        }
      ],
      "outputs": [
        {
          "name": "",
          "type": "bool",
          "internalType": "bool"
        }
      ],
      "stateMutability": "view"
    },
    {
      "type": "function",
      "name": "setConversionRate",
      "inputs": [
        {
          "name": "_conversionRate",
          "type": "uint256",
          "internalType": "uint256"
        }
      ],
      "outputs": [],
      "stateMutability": "nonpayable"
    },
    {
      "type": "function",
      "name": "token",
      "inputs": [],
      "outputs": [
        {
          "name": "",
          "type": "address",
          "internalType": "contract Bbl"
        }
      ],
      "stateMutability": "view"
    },
    {
      "type": "event",
      "name": "BridgeFinalized",
      "inputs": [
        {
          "name": "user",
          "type": "address",
          "indexed": true,
          "internalType": "address"
        },
        {
          "name": "amount",
          "type": "uint256",
          "indexed": false,
          "internalType": "uint256"
        },
        {
          "name": "opId",
          "type": "bytes32",
          "indexed": false,
          "internalType": "bytes32"
        }
      ],
      "anonymous": false
    },
    {
      "type": "event",
      "name": "BridgeInitiated",
      "inputs": [
        {
          "name": "user",
          "type": "address",
          "indexed": true,
          "internalType": "address"
        },
        {
          "name": "amount",
          "type": "uint256",
          "indexed": false,
          "internalType": "uint256"
        },
        {
          "name": "targetChain",
          "type": "string",
          "indexed": false,
          "internalType": "string"
        },
        {
          "name": "opId",
          "type": "bytes32",
          "indexed": false,
          "internalType": "bytes32"
        }
      ],
      "anonymous": false
    },
    {
      "type": "error",
      "name": "InsufficientAmount",
      "inputs": []
    },
    {
      "type": "error",
      "name": "InsufficientBalance",
      "inputs": []
    },
    {
      "type": "error",
      "name": "InvalidRecipient",
      "inputs": []
    },
    {
      "type": "error",
      "name": "InvalidTokenAddress",
      "inputs": []
    },
    {
      "type": "error",
      "name": "ReentrancyGuardReentrantCall",
      "inputs": []
    }
  ],
  "bytecode": {
    "object": "0x60a060405234801561000f575f5ffd5b50604051610d6c380380610d6c83398181016040528101906100319190610170565b600180819055505f73ffffffffffffffffffffffffffffffffffffffff168273ffffffffffffffffffffffffffffffffffffffff160361009d576040517f1eb00b0600000000000000000000000000000000000000000000000000000000815260040160405180910390fd5b8173ffffffffffffffffffffffffffffffffffffffff1660808173ffffffffffffffffffffffffffffffffffffffff16815250508060028190555050506101ae565b5f5ffd5b5f73ffffffffffffffffffffffffffffffffffffffff82169050919050565b5f61010c826100e3565b9050919050565b61011c81610102565b8114610126575f5ffd5b50565b5f8151905061013781610113565b92915050565b5f819050919050565b61014f8161013d565b8114610159575f5ffd5b50565b5f8151905061016a81610146565b92915050565b5f5f60408385031215610186576101856100df565b5b5f61019385828601610129565b92505060206101a48582860161015c565b9150509250929050565b608051610b916101db5f395f81816101f00152818161031e015281816103ee01526105270152610b915ff3fe608060405234801561000f575f5ffd5b5060043610610060575f3560e01c80632c16ffd8146100645780637ffdf53e146100805780638faa18561461009e578063bcca1e10146100ba578063d2e80494146100ea578063fc0c546a14610106575b5f5ffd5b61007e60048036038101906100799190610660565b610124565b005b6100886102d4565b60405161009591906106bf565b60405180910390f35b6100b860048036038101906100b39190610739565b6102da565b005b6100d460048036038101906100cf9190610796565b6104ff565b6040516100e191906107db565b60405180910390f35b61010460048036038101906100ff91906107f4565b61051b565b005b61010e610525565b60405161011b919061087a565b60405180910390f35b61012c610549565b5f8203610165576040517f5945ea5600000000000000000000000000000000000000000000000000000000815260040160405180910390fd5b5f73ffffffffffffffffffffffffffffffffffffffff168373ffffffffffffffffffffffffffffffffffffffff16036101ca576040517f9c8d2cd200000000000000000000000000000000000000000000000000000000815260040160405180910390fd5b5f670de0b6b3a7640000600254846101e291906108c0565b6101ec919061092e565b90507f000000000000000000000000000000000000000000000000000000000000000073ffffffffffffffffffffffffffffffffffffffff166340c10f1985836040518363ffffffff1660e01b815260040161024992919061096d565b5f604051808303815f87803b158015610260575f5ffd5b505af1158015610272573d5f5f3e3d5ffd5b505050508373ffffffffffffffffffffffffffffffffffffffff167f1d0f1cbec261e10a6ddc212adf2ae58371709340806f9f22d6a74c8f072ce9c182846040516102be9291906109a3565b60405180910390a2506102cf61058f565b505050565b60025481565b6102e2610549565b5f830361031b576040517f5945ea5600000000000000000000000000000000000000000000000000000000815260040160405180910390fd5b827f000000000000000000000000000000000000000000000000000000000000000073ffffffffffffffffffffffffffffffffffffffff166370a08231336040518263ffffffff1660e01b815260040161037591906109ca565b602060405180830381865afa158015610390573d5f5f3e3d5ffd5b505050506040513d601f19601f820116820180604052508101906103b491906109f7565b10156103ec576040517ff4d678b800000000000000000000000000000000000000000000000000000000815260040160405180910390fd5b7f000000000000000000000000000000000000000000000000000000000000000073ffffffffffffffffffffffffffffffffffffffff1663568b4afe33856040518363ffffffff1660e01b815260040161044792919061096d565b5f604051808303815f87803b15801561045e575f5ffd5b505af1158015610470573d5f5f3e3d5ffd5b505050503373ffffffffffffffffffffffffffffffffffffffff167fd795e26b12d1f36cc8217961a290d9c2ca3ebe4858af774a0faaf1099051aae38484843388426040516020016104c493929190610a87565b604051602081830303815290604052805190602001206040516104ea9493929190610b1d565b60405180910390a26104fa61058f565b505050565b5f602052805f5260405f205f915054906101000a900460ff1681565b8060028190555050565b7f000000000000000000000000000000000000000000000000000000000000000081565b600260015403610585576040517f3ee5aeb500000000000000000000000000000000000000000000000000000000815260040160405180910390fd5b6002600181905550565b60018081905550565b5f5ffd5b5f5ffd5b5f73ffffffffffffffffffffffffffffffffffffffff82169050919050565b5f6105c9826105a0565b9050919050565b6105d9816105bf565b81146105e3575f5ffd5b50565b5f813590506105f4816105d0565b92915050565b5f819050919050565b61060c816105fa565b8114610616575f5ffd5b50565b5f8135905061062781610603565b92915050565b5f819050919050565b61063f8161062d565b8114610649575f5ffd5b50565b5f8135905061065a81610636565b92915050565b5f5f5f6060848603121561067757610676610598565b5b5f610684868287016105e6565b935050602061069586828701610619565b92505060406106a68682870161064c565b9150509250925092565b6106b9816105fa565b82525050565b5f6020820190506106d25f8301846106b0565b92915050565b5f5ffd5b5f5ffd5b5f5ffd5b5f5f83601f8401126106f9576106f86106d8565b5b8235905067ffffffffffffffff811115610716576107156106dc565b5b602083019150836001820283011115610732576107316106e0565b5b9250929050565b5f5f5f604084860312156107505761074f610598565b5b5f61075d86828701610619565b935050602084013567ffffffffffffffff81111561077e5761077d61059c565b5b61078a868287016106e4565b92509250509250925092565b5f602082840312156107ab576107aa610598565b5b5f6107b88482850161064c565b91505092915050565b5f8115159050919050565b6107d5816107c1565b82525050565b5f6020820190506107ee5f8301846107cc565b92915050565b5f6020828403121561080957610808610598565b5b5f61081684828501610619565b91505092915050565b5f819050919050565b5f61084261083d610838846105a0565b61081f565b6105a0565b9050919050565b5f61085382610828565b9050919050565b5f61086482610849565b9050919050565b6108748161085a565b82525050565b5f60208201905061088d5f83018461086b565b92915050565b7f4e487b71000000000000000000000000000000000000000000000000000000005f52601160045260245ffd5b5f6108ca826105fa565b91506108d5836105fa565b92508282026108e3816105fa565b915082820484148315176108fa576108f9610893565b5b5092915050565b7f4e487b71000000000000000000000000000000000000000000000000000000005f52601260045260245ffd5b5f610938826105fa565b9150610943836105fa565b92508261095357610952610901565b5b828204905092915050565b610967816105bf565b82525050565b5f6040820190506109805f83018561095e565b61098d60208301846106b0565b9392505050565b61099d8161062d565b82525050565b5f6040820190506109b65f8301856106b0565b6109c36020830184610994565b9392505050565b5f6020820190506109dd5f83018461095e565b92915050565b5f815190506109f181610603565b92915050565b5f60208284031215610a0c57610a0b610598565b5b5f610a19848285016109e3565b91505092915050565b5f8160601b9050919050565b5f610a3882610a22565b9050919050565b5f610a4982610a2e565b9050919050565b610a61610a5c826105bf565b610a3f565b82525050565b5f819050919050565b610a81610a7c826105fa565b610a67565b82525050565b5f610a928286610a50565b601482019150610aa28285610a70565b602082019150610ab28284610a70565b602082019150819050949350505050565b5f82825260208201905092915050565b828183375f83830152505050565b5f601f19601f8301169050919050565b5f610afc8385610ac3565b9350610b09838584610ad3565b610b1283610ae1565b840190509392505050565b5f606082019050610b305f8301876106b0565b8181036020830152610b43818587610af1565b9050610b526040830184610994565b9594505050505056fea2646970667358221220b47d334ffea09728ccfcd7c279b45811861362f1abea9c6320b98e8dd5bb9e3e64736f6c634300081c0033",
    "linkReferences": {}
  },
  "methodIdentifiers": {
    "burnTokens(uint256,string)": "8faa1856",
    "conversionRate()": "7ffdf53e",
    "mintTokens(address,uint256,bytes32)": "2c16ffd8",
    "processedTx(bytes32)": "bcca1e10",
    "setConversionRate(uint256)": "d2e80494",
    "token()": "fc0c546a"
  },
  "id": 32
}