{
  "abi": [
    {
      "type": "constructor",
      "inputs": [
        {
          "name": "_token",
          "type": "address",
          "internalType": "address"
        },
        {
          "name": "_conversionRate",
          "type": "uint256",
          "internalType": "uint256"
        }
      ],
      "stateMutability": "nonpayable"
    },
    {
      "type": "function",
      "name": "bridgeOperations",
      "inputs": [
        {
          "name": "",
          "type": "bytes32",
          "internalType": "bytes32"
        }
      ],
      "outputs": [
        {
          "name": "user",
          "type": "address",
          "internalType": "address"
        },
        {
          "name": "amount",
          "type": "uint256",
          "internalType": "uint256"
        },
        {
          "name": "timestamp",
          "type": "uint40",
          "internalType": "uint40"
        },
        {
          "name": "finalized",
          "type": "bool",
          "internalType": "bool"
        }
      ],
      "stateMutability": "view"
    },
    {
      "type": "function",
      "name": "conversionRate",
      "inputs": [],
      "outputs": [
        {
          "name": "",
          "type": "uint256",
          "internalType": "uint256"
        }
      ],
      "stateMutability": "view"
    },
    {
      "type": "function",
      "name": "lockTokens",
      "inputs": [
        {
          "name": "amount",
          "type": "uint256",
          "internalType": "uint256"
        },
        {
          "name": "targetChain",
          "type": "string",
          "internalType": "string"
        }
      ],
      "outputs": [],
      "stateMutability": "nonpayable"
    },
    {
      "type": "function",
      "name": "processedTx",
      "inputs": [
        {
          "name": "",
          "type": "bytes32",
          "internalType": "bytes32"
        }
      ],
      "outputs": [
        {
          "name": "",
          "type": "bool",
          "internalType": "bool"
        }
      ],
      "stateMutability": "view"
    },
    {
      "type": "function",
      "name": "refund",
      "inputs": [
        {
          "name": "opId",
          "type": "bytes32",
          "internalType": "bytes32"
        }
      ],
      "outputs": [],
      "stateMutability": "nonpayable"
    },
    {
      "type": "function",
      "name": "refundTime",
      "inputs": [],
      "outputs": [
        {
          "name": "",
          "type": "uint256",
          "internalType": "uint256"
        }
      ],
      "stateMutability": "view"
    },
    {
      "type": "function",
      "name": "releaseTokens",
      "inputs": [
        {
          "name": "to",
          "type": "address",
          "internalType": "address"
        },
        {
          "name": "amount",
          "type": "uint256",
          "internalType": "uint256"
        },
        {
          "name": "sourceTx",
          "type": "bytes32",
          "internalType": "bytes32"
        }
      ],
      "outputs": [],
      "stateMutability": "nonpayable"
    },
    {
      "type": "function",
      "name": "setConversionRate",
      "inputs": [
        {
          "name": "_conversionRate",
          "type": "uint256",
          "internalType": "uint256"
        }
      ],
      "outputs": [],
      "stateMutability": "nonpayable"
    },
    {
      "type": "function",
      "name": "token",
      "inputs": [],
      "outputs": [
        {
          "name": "",
          "type": "address",
          "internalType": "contract Bbl"
        }
      ],
      "stateMutability": "view"
    },
    {
      "type": "event",
      "name": "BridgeFinalized",
      "inputs": [
        {
          "name": "user",
          "type": "address",
          "indexed": true,
          "internalType": "address"
        },
        {
          "name": "amount",
          "type": "uint256",
          "indexed": false,
          "internalType": "uint256"
        },
        {
          "name": "opId",
          "type": "bytes32",
          "indexed": false,
          "internalType": "bytes32"
        }
      ],
      "anonymous": false
    },
    {
      "type": "event",
      "name": "BridgeInitiated",
      "inputs": [
        {
          "name": "user",
          "type": "address",
          "indexed": true,
          "internalType": "address"
        },
        {
          "name": "amount",
          "type": "uint256",
          "indexed": false,
          "internalType": "uint256"
        },
        {
          "name": "targetChain",
          "type": "string",
          "indexed": false,
          "internalType": "string"
        },
        {
          "name": "opId",
          "type": "bytes32",
          "indexed": false,
          "internalType": "bytes32"
        }
      ],
      "anonymous": false
    },
    {
      "type": "event",
      "name": "Refund",
      "inputs": [
        {
          "name": "user",
          "type": "address",
          "indexed": true,
          "internalType": "address"
        },
        {
          "name": "amount",
          "type": "uint256",
          "indexed": false,
          "internalType": "uint256"
        },
        {
          "name": "opId",
          "type": "bytes32",
          "indexed": false,
          "internalType": "bytes32"
        }
      ],
      "anonymous": false
    },
    {
      "type": "error",
      "name": "AlreadyFinalized",
      "inputs": []
    },
    {
      "type": "error",
      "name": "AlreadyProcessed",
      "inputs": []
    },
    {
      "type": "error",
      "name": "InsufficientAllowance",
      "inputs": []
    },
    {
      "type": "error",
      "name": "InsufficientAmount",
      "inputs": []
    },
    {
      "type": "error",
      "name": "InsufficientBalance",
      "inputs": []
    },
    {
      "type": "error",
      "name": "InvalidRecipient",
      "inputs": []
    },
    {
      "type": "error",
      "name": "InvalidTokenAddress",
      "inputs": []
    },
    {
      "type": "error",
      "name": "ReentrancyGuardReentrantCall",
      "inputs": []
    },
    {
      "type": "error",
      "name": "RefundTooEarly",
      "inputs": []
    }
  ],
  "bytecode": {
    "object": "0x60a060405234801561000f575f5ffd5b506040516114cb3803806114cb83398181016040528101906100319190610170565b600180819055505f73ffffffffffffffffffffffffffffffffffffffff168273ffffffffffffffffffffffffffffffffffffffff160361009d576040517f1eb00b0600000000000000000000000000000000000000000000000000000000815260040160405180910390fd5b8173ffffffffffffffffffffffffffffffffffffffff1660808173ffffffffffffffffffffffffffffffffffffffff16815250508060038190555050506101ae565b5f5ffd5b5f73ffffffffffffffffffffffffffffffffffffffff82169050919050565b5f61010c826100e3565b9050919050565b61011c81610102565b8114610126575f5ffd5b50565b5f8151905061013781610113565b92915050565b5f819050919050565b61014f8161013d565b8114610159575f5ffd5b50565b5f8151905061016a81610146565b92915050565b5f5f60408385031215610186576101856100df565b5b5f61019385828601610129565b92505060206101a48582860161015c565b9150509250929050565b6080516112e26101e95f395f8181610206015281816102d7015281816103a901528181610733015281816109f10152610b3201526112e25ff3fe608060405234801561000f575f5ffd5b5060043610610091575f3560e01c80639b0ac9b0116100645780639b0ac9b01461011e578063ab78dd531461013c578063bcca1e1014610158578063d2e8049414610188578063fc0c546a146101a457610091565b806308134567146100955780631387380f146100b15780637249fbb6146100e45780637ffdf53e14610100575b5f5ffd5b6100af60048036038101906100aa9190610c3f565b6101c2565b005b6100cb60048036038101906100c69190610ccf565b6105e4565b6040516100db9493929190610d81565b60405180910390f35b6100fe60048036038101906100f99190610ccf565b61064c565b005b610108610875565b6040516101159190610dc4565b60405180910390f35b61012661087b565b6040516101339190610dc4565b60405180910390f35b61015660048036038101906101519190610e07565b610882565b005b610172600480360381019061016d9190610ccf565b610b0a565b60405161017f9190610e57565b60405180910390f35b6101a2600480360381019061019d9190610e70565b610b26565b005b6101ac610b30565b6040516101b99190610ef6565b60405180910390f35b6101ca610b54565b5f8303610203576040517f5945ea5600000000000000000000000000000000000000000000000000000000815260040160405180910390fd5b827f000000000000000000000000000000000000000000000000000000000000000073ffffffffffffffffffffffffffffffffffffffff166370a08231336040518263ffffffff1660e01b815260040161025d9190610f0f565b602060405180830381865afa158015610278573d5f5f3e3d5ffd5b505050506040513d601f19601f8201168201806040525081019061029c9190610f3c565b10156102d4576040517ff4d678b800000000000000000000000000000000000000000000000000000000815260040160405180910390fd5b827f000000000000000000000000000000000000000000000000000000000000000073ffffffffffffffffffffffffffffffffffffffff1663dd62ed3e33306040518363ffffffff1660e01b8152600401610330929190610f67565b602060405180830381865afa15801561034b573d5f5f3e3d5ffd5b505050506040513d601f19601f8201168201806040525081019061036f9190610f3c565b10156103a7576040517f13be252b00000000000000000000000000000000000000000000000000000000815260040160405180910390fd5b7f000000000000000000000000000000000000000000000000000000000000000073ffffffffffffffffffffffffffffffffffffffff166323b872dd3330866040518463ffffffff1660e01b815260040161040493929190610f8e565b6020604051808303815f875af1158015610420573d5f5f3e3d5ffd5b505050506040513d601f19601f820116820180604052508101906104449190610fed565b505f670de0b6b3a76400006003548561045d9190611045565b61046791906110b3565b90505f33824260405160200161047f93929190611148565b60405160208183030381529060405280519060200120905060405180608001604052803373ffffffffffffffffffffffffffffffffffffffff1681526020018681526020014264ffffffffff1681526020015f151581525060025f8381526020019081526020015f205f820151815f015f6101000a81548173ffffffffffffffffffffffffffffffffffffffff021916908373ffffffffffffffffffffffffffffffffffffffff160217905550602082015181600101556040820151816002015f6101000a81548164ffffffffff021916908364ffffffffff16021790555060608201518160020160056101000a81548160ff0219169083151502179055509050503373ffffffffffffffffffffffffffffffffffffffff167fd795e26b12d1f36cc8217961a290d9c2ca3ebe4858af774a0faaf1099051aae3838686856040516105cd94939291906111ed565b60405180910390a250506105df610b9a565b505050565b6002602052805f5260405f205f91509050805f015f9054906101000a900473ffffffffffffffffffffffffffffffffffffffff1690806001015490806002015f9054906101000a900464ffffffffff16908060020160059054906101000a900460ff16905084565b610654610b54565b5f60025f8381526020019081526020015f20905062015180816002015f9054906101000a900464ffffffffff1664ffffffffff16610692919061122b565b4210156106cb576040517f9403b55e00000000000000000000000000000000000000000000000000000000815260040160405180910390fd5b8060020160059054906101000a900460ff1615610714576040517f475a253500000000000000000000000000000000000000000000000000000000815260040160405180910390fd5b60018160020160056101000a81548160ff0219169083151502179055507f000000000000000000000000000000000000000000000000000000000000000073ffffffffffffffffffffffffffffffffffffffff1663a9059cbb825f015f9054906101000a900473ffffffffffffffffffffffffffffffffffffffff1683600101546040518363ffffffff1660e01b81526004016107b292919061125e565b6020604051808303815f875af11580156107ce573d5f5f3e3d5ffd5b505050506040513d601f19601f820116820180604052508101906107f29190610fed565b50805f015f9054906101000a900473ffffffffffffffffffffffffffffffffffffffff1673ffffffffffffffffffffffffffffffffffffffff167fe3ca1d1df0db03657b2ca9c81e3cde98c972fd6d4242a20996932dea9431ac69826001015484604051610861929190611285565b60405180910390a250610872610b9a565b50565b60035481565b6201518081565b805f5f8281526020019081526020015f205f9054906101000a900460ff16156108d7576040517f57eee76600000000000000000000000000000000000000000000000000000000815260040160405180910390fd5b5f73ffffffffffffffffffffffffffffffffffffffff168473ffffffffffffffffffffffffffffffffffffffff160361093c576040517f9c8d2cd200000000000000000000000000000000000000000000000000000000815260040160405180910390fd5b5f8303610975576040517f5945ea5600000000000000000000000000000000000000000000000000000000815260040160405180910390fd5b5f60025f8481526020019081526020015f2090508060020160059054906101000a900460ff16156109d2576040517f475a253500000000000000000000000000000000000000000000000000000000815260040160405180910390fd5b60018160020160056101000a81548160ff0219169083151502179055507f000000000000000000000000000000000000000000000000000000000000000073ffffffffffffffffffffffffffffffffffffffff1663a9059cbb86866040518363ffffffff1660e01b8152600401610a4a92919061125e565b6020604051808303815f875af1158015610a66573d5f5f3e3d5ffd5b505050506040513d601f19601f82011682018060405250810190610a8a9190610fed565b508473ffffffffffffffffffffffffffffffffffffffff167f1d0f1cbec261e10a6ddc212adf2ae58371709340806f9f22d6a74c8f072ce9c18585604051610ad3929190611285565b60405180910390a25060015f5f8381526020019081526020015f205f6101000a81548160ff02191690831515021790555050505050565b5f602052805f5260405f205f915054906101000a900460ff1681565b8060038190555050565b7f000000000000000000000000000000000000000000000000000000000000000081565b600260015403610b90576040517f3ee5aeb500000000000000000000000000000000000000000000000000000000815260040160405180910390fd5b6002600181905550565b60018081905550565b5f5ffd5b5f5ffd5b5f819050919050565b610bbd81610bab565b8114610bc7575f5ffd5b50565b5f81359050610bd881610bb4565b92915050565b5f5ffd5b5f5ffd5b5f5ffd5b5f5f83601f840112610bff57610bfe610bde565b5b8235905067ffffffffffffffff811115610c1c57610c1b610be2565b5b602083019150836001820283011115610c3857610c37610be6565b5b9250929050565b5f5f5f60408486031215610c5657610c55610ba3565b5b5f610c6386828701610bca565b935050602084013567ffffffffffffffff811115610c8457610c83610ba7565b5b610c9086828701610bea565b92509250509250925092565b5f819050919050565b610cae81610c9c565b8114610cb8575f5ffd5b50565b5f81359050610cc981610ca5565b92915050565b5f60208284031215610ce457610ce3610ba3565b5b5f610cf184828501610cbb565b91505092915050565b5f73ffffffffffffffffffffffffffffffffffffffff82169050919050565b5f610d2382610cfa565b9050919050565b610d3381610d19565b82525050565b610d4281610bab565b82525050565b5f64ffffffffff82169050919050565b610d6181610d48565b82525050565b5f8115159050919050565b610d7b81610d67565b82525050565b5f608082019050610d945f830187610d2a565b610da16020830186610d39565b610dae6040830185610d58565b610dbb6060830184610d72565b95945050505050565b5f602082019050610dd75f830184610d39565b92915050565b610de681610d19565b8114610df0575f5ffd5b50565b5f81359050610e0181610ddd565b92915050565b5f5f5f60608486031215610e1e57610e1d610ba3565b5b5f610e2b86828701610df3565b9350506020610e3c86828701610bca565b9250506040610e4d86828701610cbb565b9150509250925092565b5f602082019050610e6a5f830184610d72565b92915050565b5f60208284031215610e8557610e84610ba3565b5b5f610e9284828501610bca565b91505092915050565b5f819050919050565b5f610ebe610eb9610eb484610cfa565b610e9b565b610cfa565b9050919050565b5f610ecf82610ea4565b9050919050565b5f610ee082610ec5565b9050919050565b610ef081610ed6565b82525050565b5f602082019050610f095f830184610ee7565b92915050565b5f602082019050610f225f830184610d2a565b92915050565b5f81519050610f3681610bb4565b92915050565b5f60208284031215610f5157610f50610ba3565b5b5f610f5e84828501610f28565b91505092915050565b5f604082019050610f7a5f830185610d2a565b610f876020830184610d2a565b9392505050565b5f606082019050610fa15f830186610d2a565b610fae6020830185610d2a565b610fbb6040830184610d39565b949350505050565b610fcc81610d67565b8114610fd6575f5ffd5b50565b5f81519050610fe781610fc3565b92915050565b5f6020828403121561100257611001610ba3565b5b5f61100f84828501610fd9565b91505092915050565b7f4e487b71000000000000000000000000000000000000000000000000000000005f52601160045260245ffd5b5f61104f82610bab565b915061105a83610bab565b925082820261106881610bab565b9150828204841483151761107f5761107e611018565b5b5092915050565b7f4e487b71000000000000000000000000000000000000000000000000000000005f52601260045260245ffd5b5f6110bd82610bab565b91506110c883610bab565b9250826110d8576110d7611086565b5b828204905092915050565b5f8160601b9050919050565b5f6110f9826110e3565b9050919050565b5f61110a826110ef565b9050919050565b61112261111d82610d19565b611100565b82525050565b5f819050919050565b61114261113d82610bab565b611128565b82525050565b5f6111538286611111565b6014820191506111638285611131565b6020820191506111738284611131565b602082019150819050949350505050565b5f82825260208201905092915050565b828183375f83830152505050565b5f601f19601f8301169050919050565b5f6111bd8385611184565b93506111ca838584611194565b6111d3836111a2565b840190509392505050565b6111e781610c9c565b82525050565b5f6060820190506112005f830187610d39565b81810360208301526112138185876111b2565b905061122260408301846111de565b95945050505050565b5f61123582610bab565b915061124083610bab565b925082820190508082111561125857611257611018565b5b92915050565b5f6040820190506112715f830185610d2a565b61127e6020830184610d39565b9392505050565b5f6040820190506112985f830185610d39565b6112a560208301846111de565b939250505056fea2646970667358221220d55fc108bffbe0304857078c4cde77de2872016ca315355e021236c7ff13c8ab64736f6c634300081c0033",
    "linkReferences": {}
  },
  "methodIdentifiers": {
    "bridgeOperations(bytes32)": "1387380f",
    "conversionRate()": "7ffdf53e",
    "lockTokens(uint256,string)": "08134567",
    "processedTx(bytes32)": "bcca1e10",
    "refund(bytes32)": "7249fbb6",
    "refundTime()": "9b0ac9b0",
    "releaseTokens(address,uint256,bytes32)": "ab78dd53",
    "setConversionRate(uint256)": "d2e80494",
    "token()": "fc0c546a"
  },
  "id": 34
}