{"abi":[{"type":"constructor","inputs":[{"name":"_token","type":"address","internalType":"address"}],"stateMutability":"nonpayable"},{"type":"function","name":"lockTokens","inputs":[{"name":"amount","type":"uint256","internalType":"uint256"},{"name":"targetChain","type":"string","internalType":"string"}],"outputs":[],"stateMutability":"nonpayable"},{"type":"function","name":"processedTx","inputs":[{"name":"","type":"bytes32","internalType":"bytes32"}],"outputs":[{"name":"","type":"bool","internalType":"bool"}],"stateMutability":"view"},{"type":"function","name":"releaseTokens","inputs":[{"name":"to","type":"address","internalType":"address"},{"name":"amount","type":"uint256","internalType":"uint256"},{"name":"sourceTx","type":"bytes32","internalType":"bytes32"}],"outputs":[],"stateMutability":"nonpayable"},{"type":"function","name":"token","inputs":[],"outputs":[{"name":"","type":"address","internalType":"contract Bbl"}],"stateMutability":"view"},{"type":"event","name":"BridgeFinalized","inputs":[{"name":"user","type":"address","indexed":true,"internalType":"address"},{"name":"amount","type":"uint256","indexed":false,"internalType":"uint256"},{"name":"sourceTx","type":"bytes32","indexed":false,"internalType":"bytes32"}],"anonymous":false},{"type":"event","name":"BridgeInitiated","inputs":[{"name":"user","type":"address","indexed":true,"internalType":"address"},{"name":"amount","type":"uint256","indexed":false,"internalType":"uint256"},{"name":"targetChain","type":"string","indexed":false,"internalType":"string"},{"name":"txHash","type":"bytes32","indexed":false,"internalType":"bytes32"}],"anonymous":false},{"type":"error","name":"AlreadyProcessed","inputs":[]},{"type":"error","name":"ReentrancyGuardReentrantCall","inputs":[]}],"bytecode":{"object":"0x608060405234801561000f575f5ffd5b50604051610b18380380610b18833981810160405281019061003191906100dc565b600180819055508060025f6101000a81548173ffffffffffffffffffffffffffffffffffffffff021916908373ffffffffffffffffffffffffffffffffffffffff16021790555050610107565b5f5ffd5b5f73ffffffffffffffffffffffffffffffffffffffff82169050919050565b5f6100ab82610082565b9050919050565b6100bb816100a1565b81146100c5575f5ffd5b50565b5f815190506100d6816100b2565b92915050565b5f602082840312156100f1576100f061007e565b5b5f6100fe848285016100c8565b91505092915050565b610a04806101145f395ff3fe608060405234801561000f575f5ffd5b506004361061004a575f3560e01c8063081345671461004e578063ab78dd531461006a578063bcca1e1014610086578063fc0c546a146100b6575b5f5ffd5b61006860048036038101906100639190610583565b6100d4565b005b610084600480360381019061007f919061066a565b610203565b005b6100a0600480360381019061009b91906106ba565b610373565b6040516100ad91906106ff565b60405180910390f35b6100be61038f565b6040516100cb9190610773565b60405180910390f35b6100dc6103b4565b60025f9054906101000a900473ffffffffffffffffffffffffffffffffffffffff1673ffffffffffffffffffffffffffffffffffffffff166323b872dd3330856040518463ffffffff1660e01b815260040161013a939291906107aa565b6020604051808303815f875af1158015610156573d5f5f3e3d5ffd5b505050506040513d601f19601f8201168201806040525081019061017a9190610809565b503373ffffffffffffffffffffffffffffffffffffffff167fd795e26b12d1f36cc8217961a290d9c2ca3ebe4858af774a0faaf1099051aae383833386426040516020016101ca93929190610899565b604051602081830303815290604052805190602001206040516101ef93929190610944565b60405180910390a26101ff6103fa565b5050565b805f5f8281526020019081526020015f205f9054906101000a900460ff1615610258576040517f57eee76600000000000000000000000000000000000000000000000000000000815260040160405180910390fd5b60025f9054906101000a900473ffffffffffffffffffffffffffffffffffffffff1673ffffffffffffffffffffffffffffffffffffffff1663a9059cbb85856040518363ffffffff1660e01b81526004016102b4929190610980565b6020604051808303815f875af11580156102d0573d5f5f3e3d5ffd5b505050506040513d601f19601f820116820180604052508101906102f49190610809565b508373ffffffffffffffffffffffffffffffffffffffff167f1d0f1cbec261e10a6ddc212adf2ae58371709340806f9f22d6a74c8f072ce9c1848460405161033d9291906109a7565b60405180910390a260015f5f8381526020019081526020015f205f6101000a81548160ff02191690831515021790555050505050565b5f602052805f5260405f205f915054906101000a900460ff1681565b60025f9054906101000a900473ffffffffffffffffffffffffffffffffffffffff1681565b6002600154036103f0576040517f3ee5aeb500000000000000000000000000000000000000000000000000000000815260040160405180910390fd5b6002600181905550565b60018081905550565b5f604051905090565b5f5ffd5b5f5ffd5b5f819050919050565b61042681610414565b8114610430575f5ffd5b50565b5f813590506104418161041d565b92915050565b5f5ffd5b5f5ffd5b5f601f19601f8301169050919050565b7f4e487b71000000000000000000000000000000000000000000000000000000005f52604160045260245ffd5b6104958261044f565b810181811067ffffffffffffffff821117156104b4576104b361045f565b5b80604052505050565b5f6104c6610403565b90506104d2828261048c565b919050565b5f67ffffffffffffffff8211156104f1576104f061045f565b5b6104fa8261044f565b9050602081019050919050565b828183375f83830152505050565b5f610527610522846104d7565b6104bd565b9050828152602081018484840111156105435761054261044b565b5b61054e848285610507565b509392505050565b5f82601f83011261056a57610569610447565b5b813561057a848260208601610515565b91505092915050565b5f5f604083850312156105995761059861040c565b5b5f6105a685828601610433565b925050602083013567ffffffffffffffff8111156105c7576105c6610410565b5b6105d385828601610556565b9150509250929050565b5f73ffffffffffffffffffffffffffffffffffffffff82169050919050565b5f610606826105dd565b9050919050565b610616816105fc565b8114610620575f5ffd5b50565b5f813590506106318161060d565b92915050565b5f819050919050565b61064981610637565b8114610653575f5ffd5b50565b5f8135905061066481610640565b92915050565b5f5f5f606084860312156106815761068061040c565b5b5f61068e86828701610623565b935050602061069f86828701610433565b92505060406106b086828701610656565b9150509250925092565b5f602082840312156106cf576106ce61040c565b5b5f6106dc84828501610656565b91505092915050565b5f8115159050919050565b6106f9816106e5565b82525050565b5f6020820190506107125f8301846106f0565b92915050565b5f819050919050565b5f61073b610736610731846105dd565b610718565b6105dd565b9050919050565b5f61074c82610721565b9050919050565b5f61075d82610742565b9050919050565b61076d81610753565b82525050565b5f6020820190506107865f830184610764565b92915050565b610795816105fc565b82525050565b6107a481610414565b82525050565b5f6060820190506107bd5f83018661078c565b6107ca602083018561078c565b6107d7604083018461079b565b949350505050565b6107e8816106e5565b81146107f2575f5ffd5b50565b5f81519050610803816107df565b92915050565b5f6020828403121561081e5761081d61040c565b5b5f61082b848285016107f5565b91505092915050565b5f8160601b9050919050565b5f61084a82610834565b9050919050565b5f61085b82610840565b9050919050565b61087361086e826105fc565b610851565b82525050565b5f819050919050565b61089361088e82610414565b610879565b82525050565b5f6108a48286610862565b6014820191506108b48285610882565b6020820191506108c48284610882565b602082019150819050949350505050565b5f81519050919050565b5f82825260208201905092915050565b8281835e5f83830152505050565b5f610907826108d5565b61091181856108df565b93506109218185602086016108ef565b61092a8161044f565b840191505092915050565b61093e81610637565b82525050565b5f6060820190506109575f83018661079b565b818103602083015261096981856108fd565b90506109786040830184610935565b949350505050565b5f6040820190506109935f83018561078c565b6109a0602083018461079b565b9392505050565b5f6040820190506109ba5f83018561079b565b6109c76020830184610935565b939250505056fea264697066735822122059962d43e5d7596c00613ea269e378f36fd7f07ede8ad3dcdd86ebe68158c95464736f6c634300081c0033","linkReferences":{}},"methodIdentifiers":{"lockTokens(uint256,string)":"08134567","processedTx(bytes32)":"bcca1e10","releaseTokens(address,uint256,bytes32)":"ab78dd53","token()":"fc0c546a"},"id":29}