{
  "abi": [
    {
      "type": "constructor",
      "inputs": [
        {
          "name": "_token",
          "type": "address",
          "internalType": "address"
        }
      ],
      "stateMutability": "nonpayable"
    },
    {
      "type": "function",
      "name": "burnTokens",
      "inputs": [
        {
          "name": "amount",
          "type": "uint256",
          "internalType": "uint256"
        },
        {
          "name": "targetChain",
          "type": "string",
          "internalType": "string"
        }
      ],
      "outputs": [],
      "stateMutability": "nonpayable"
    },
    {
      "type": "function",
      "name": "mintTokens",
      "inputs": [
        {
          "name": "to",
          "type": "address",
          "internalType": "address"
        },
        {
          "name": "amount",
          "type": "uint256",
          "internalType": "uint256"
        },
        {
          "name": "sourceTx",
          "type": "bytes32",
          "internalType": "bytes32"
        }
      ],
      "outputs": [],
      "stateMutability": "nonpayable"
    },
    {
      "type": "function",
      "name": "processedTx",
      "inputs": [
        {
          "name": "",
          "type": "bytes32",
          "internalType": "bytes32"
        }
      ],
      "outputs": [
        {
          "name": "",
          "type": "bool",
          "internalType": "bool"
        }
      ],
      "stateMutability": "view"
    },
    {
      "type": "function",
      "name": "token",
      "inputs": [],
      "outputs": [
        {
          "name": "",
          "type": "address",
          "internalType": "contract Bbl"
        }
      ],
      "stateMutability": "view"
    },
    {
      "type": "event",
      "name": "BridgeFinalized",
      "inputs": [
        {
          "name": "user",
          "type": "address",
          "indexed": true,
          "internalType": "address"
        },
        {
          "name": "amount",
          "type": "uint256",
          "indexed": false,
          "internalType": "uint256"
        },
        {
          "name": "sourceTx",
          "type": "bytes32",
          "indexed": false,
          "internalType": "bytes32"
        }
      ],
      "anonymous": false
    },
    {
      "type": "event",
      "name": "BridgeInitiated",
      "inputs": [
        {
          "name": "user",
          "type": "address",
          "indexed": true,
          "internalType": "address"
        },
        {
          "name": "amount",
          "type": "uint256",
          "indexed": false,
          "internalType": "uint256"
        },
        {
          "name": "targetChain",
          "type": "string",
          "indexed": false,
          "internalType": "string"
        },
        {
          "name": "txHash",
          "type": "bytes32",
          "indexed": false,
          "internalType": "bytes32"
        }
      ],
      "anonymous": false
    },
    {
      "type": "error",
      "name": "InsufficientAmount",
      "inputs": []
    },
    {
      "type": "error",
      "name": "InvalidTokenAddress",
      "inputs": []
    },
    {
      "type": "error",
      "name": "ReentrancyGuardReentrantCall",
      "inputs": []
    }
  ],
  "bytecode": {
    "object": "0x608060405234801561000f575f5ffd5b50604051610acd380380610acd83398181016040528101906100319190610141565b600180819055505f73ffffffffffffffffffffffffffffffffffffffff168173ffffffffffffffffffffffffffffffffffffffff160361009d576040517f1eb00b0600000000000000000000000000000000000000000000000000000000815260040160405180910390fd5b8060025f6101000a81548173ffffffffffffffffffffffffffffffffffffffff021916908373ffffffffffffffffffffffffffffffffffffffff1602179055505061016c565b5f5ffd5b5f73ffffffffffffffffffffffffffffffffffffffff82169050919050565b5f610110826100e7565b9050919050565b61012081610106565b811461012a575f5ffd5b50565b5f8151905061013b81610117565b92915050565b5f60208284031215610156576101556100e3565b5b5f6101638482850161012d565b91505092915050565b610954806101795f395ff3fe608060405234801561000f575f5ffd5b506004361061004a575f3560e01c80632c16ffd81461004e5780638faa18561461006a578063bcca1e1014610086578063fc0c546a146100b6575b5f5ffd5b610068600480360381019061006391906104ae565b6100d4565b005b610084600480360381019061007f919061063a565b6101fb565b005b6100a0600480360381019061009b9190610694565b61034d565b6040516100ad91906106d9565b60405180910390f35b6100be610369565b6040516100cb919061074d565b60405180910390f35b6100dc61038e565b5f8203610115576040517f5945ea5600000000000000000000000000000000000000000000000000000000815260040160405180910390fd5b60025f9054906101000a900473ffffffffffffffffffffffffffffffffffffffff1673ffffffffffffffffffffffffffffffffffffffff166340c10f1984846040518363ffffffff1660e01b8152600401610171929190610784565b5f604051808303815f87803b158015610188575f5ffd5b505af115801561019a573d5f5f3e3d5ffd5b505050508273ffffffffffffffffffffffffffffffffffffffff167f1d0f1cbec261e10a6ddc212adf2ae58371709340806f9f22d6a74c8f072ce9c183836040516101e69291906107ba565b60405180910390a26101f66103d4565b505050565b61020361038e565b5f820361023c576040517f5945ea5600000000000000000000000000000000000000000000000000000000815260040160405180910390fd5b60025f9054906101000a900473ffffffffffffffffffffffffffffffffffffffff1673ffffffffffffffffffffffffffffffffffffffff1663568b4afe33846040518363ffffffff1660e01b8152600401610298929190610784565b5f604051808303815f87803b1580156102af575f5ffd5b505af11580156102c1573d5f5f3e3d5ffd5b505050503373ffffffffffffffffffffffffffffffffffffffff167fd795e26b12d1f36cc8217961a290d9c2ca3ebe4858af774a0faaf1099051aae3838333864260405160200161031493929190610846565b60405160208183030381529060405280519060200120604051610339939291906108e2565b60405180910390a26103496103d4565b5050565b5f602052805f5260405f205f915054906101000a900460ff1681565b60025f9054906101000a900473ffffffffffffffffffffffffffffffffffffffff1681565b6002600154036103ca576040517f3ee5aeb500000000000000000000000000000000000000000000000000000000815260040160405180910390fd5b6002600181905550565b60018081905550565b5f604051905090565b5f5ffd5b5f5ffd5b5f73ffffffffffffffffffffffffffffffffffffffff82169050919050565b5f610417826103ee565b9050919050565b6104278161040d565b8114610431575f5ffd5b50565b5f813590506104428161041e565b92915050565b5f819050919050565b61045a81610448565b8114610464575f5ffd5b50565b5f8135905061047581610451565b92915050565b5f819050919050565b61048d8161047b565b8114610497575f5ffd5b50565b5f813590506104a881610484565b92915050565b5f5f5f606084860312156104c5576104c46103e6565b5b5f6104d286828701610434565b93505060206104e386828701610467565b92505060406104f48682870161049a565b9150509250925092565b5f5ffd5b5f5ffd5b5f601f19601f8301169050919050565b7f4e487b71000000000000000000000000000000000000000000000000000000005f52604160045260245ffd5b61054c82610506565b810181811067ffffffffffffffff8211171561056b5761056a610516565b5b80604052505050565b5f61057d6103dd565b90506105898282610543565b919050565b5f67ffffffffffffffff8211156105a8576105a7610516565b5b6105b182610506565b9050602081019050919050565b828183375f83830152505050565b5f6105de6105d98461058e565b610574565b9050828152602081018484840111156105fa576105f9610502565b5b6106058482856105be565b509392505050565b5f82601f830112610621576106206104fe565b5b81356106318482602086016105cc565b91505092915050565b5f5f604083850312156106505761064f6103e6565b5b5f61065d85828601610467565b925050602083013567ffffffffffffffff81111561067e5761067d6103ea565b5b61068a8582860161060d565b9150509250929050565b5f602082840312156106a9576106a86103e6565b5b5f6106b68482850161049a565b91505092915050565b5f8115159050919050565b6106d3816106bf565b82525050565b5f6020820190506106ec5f8301846106ca565b92915050565b5f819050919050565b5f61071561071061070b846103ee565b6106f2565b6103ee565b9050919050565b5f610726826106fb565b9050919050565b5f6107378261071c565b9050919050565b6107478161072d565b82525050565b5f6020820190506107605f83018461073e565b92915050565b61076f8161040d565b82525050565b61077e81610448565b82525050565b5f6040820190506107975f830185610766565b6107a46020830184610775565b9392505050565b6107b48161047b565b82525050565b5f6040820190506107cd5f830185610775565b6107da60208301846107ab565b9392505050565b5f8160601b9050919050565b5f6107f7826107e1565b9050919050565b5f610808826107ed565b9050919050565b61082061081b8261040d565b6107fe565b82525050565b5f819050919050565b61084061083b82610448565b610826565b82525050565b5f610851828661080f565b601482019150610861828561082f565b602082019150610871828461082f565b602082019150819050949350505050565b5f81519050919050565b5f82825260208201905092915050565b8281835e5f83830152505050565b5f6108b482610882565b6108be818561088c565b93506108ce81856020860161089c565b6108d781610506565b840191505092915050565b5f6060820190506108f55f830186610775565b818103602083015261090781856108aa565b905061091660408301846107ab565b94935050505056fea2646970667358221220b7f030280f578da07942fc8ff6725ec012ada5993cf729b3be5ea2ced45cf81a64736f6c634300081c0033",
    "linkReferences": {}
  },
  "methodIdentifiers": {
    "burnTokens(uint256,string)": "8faa1856",
    "mintTokens(address,uint256,bytes32)": "2c16ffd8",
    "processedTx(bytes32)": "bcca1e10",
    "token()": "fc0c546a"
  },
  "id": 27
}